:100000000C9462000C948A000C948A000C948A0070
:100010000C948A000C948A000C948A000C948A0038
:100020000C948A000C948A000C948A000C948A0028
:100030000C948A000C948A000C948A000C948A0018
:100040000C9409050C948A000C948A000C948A0084
:100050000C948A000C948A000C948A000C948A00F8
:100060000C948A000C948A00000000080002010031
:100070000003040700000000000000000102040863
:100080001020408001020408102001020408102002
:10009000040404040404040402020202020203032E
:1000A00003030303000000002300260029000000D2
:1000B0000000250028002B0000000000240027007D
:1000C0002A006D0311241FBECFEFD8E0DEBFCDBFE5
:1000D00011E0A0E0B1E0E4E2F6E102C005900D928B
:1000E000AA33B107D9F721E0AAE3B1E001C01D921C
:1000F000A338B207E1F710E0C4ECD0E004C02297C7
:10010000FE010E940C0BC23CD107C9F70E94BA083D
:100110000C94100B0C94000060E082E00E944A06F0
:1001200060E081E00E944A0661E089E00E944A06A0
:1001300020E042E060E18AE391E00E9436048AE335
:1001400091E00E94F4040E94530560936201709351
:10015000630180936401909365010E94530560934D
:100160005A0170935B0180935C0190935D010E9442
:1001700053056093560170935701809358019093F3
:1001800059010E94530560935E0170935F01809353
:100190006001909361010E94530560935201709336
:1001A000530180935401909355010895CF92DF92AB
:1001B000EF92FF920F931F9381E00E94B906813066
:1001C0009105E9F5409162015091630160916401EC
:1001D0007091650100915E0110915F0120916001B5
:1001E000309161016A017B01C01AD10AE20AF30A67
:1001F0000091020110910301209104013091050149
:100200000C151D052E053F05D4F4209107013091F2
:1002100008012F5F3F4F2430310529F0309308014A
:100220002093070104C09093080180930701409335
:100230005E0150935F0160936001709361011F91B3
:100240000F91FF90EF90DF90CF900895CF92DF92C3
:10025000EF92FF9282E00E94B906019709F063C015
:100260000E945305C0905201D0905301E090540178
:10027000F09055016C197D098E099F09C09002010B
:10028000D0900301E0900401F0900501C616D70656
:10029000E806F90608F047C080910701909108012F
:1002A0008230910519F0039759F033C0809109010C
:1002B000813411F48BE401C081E48093090129C0E9
:1002C00020E030E040E85FE360910A0170910B01AB
:1002D00080910C0190910D010E94CA086B017C0174
:1002E00020E030E047E153E40E942E09882349F0E2
:1002F000C0920A01D0920B01E0920C01F0920D0124
:1003000008C010920A0110920B0110920C01109279
:100310000D010E9453056093520170935301809325
:10032000540190935501FF90EF90DF90CF90089586
:10033000CF92DF92EF92FF9280E00E94A505BC0170
:10034000882777FD8095982F0E94CD0920E030EC1A
:100350004FE754E40E94320920E030E44CE955E4D0
:100360000E94810A609372017093730180937401FB
:100370009093750120E030E040E251E40E943209A0
:100380009B01AC01609376017093770180937801B3
:100390009093790160910A0170910B0180910C0199
:1003A00090910D010E94C9086B017C0120E030E0B2
:1003B000A9010E947D0A18161CF520E030E04EE7E6
:1003C00053E4C701B6010E94810A20E030E046E113
:1003D00053E40E94320960936E0170936F01809321
:1003E00070019093710120910901213489F40E94D8
:1003F0009A0989E0FF90EF90DF90CF900C94C205AE
:1004000010926E0110926F011092700110927101A2
:10041000FF90EF90DF90CF9008950F931F93462F9A
:10042000682F8AE391E00E941C0480916201909100
:100430006301A0916401B091650140915601509112
:10044000570160915801709159018C019D01041B65
:10045000150B260B370BB901A80101501109210911
:100460003109073E13402105310530F48AE391E05C
:100470001F910F910C94FB04485E53406109710970
:10048000483E53406105710530F48AE391E01F91C5
:100490000F910C94F4048093560190935701A0930C
:1004A0005801B09359011F910F9108958F929F9217
:1004B000AF92BF92CF92DF92EF92FF920F93CF93C2
:1004C0004B015C0169017A01C1E0609166017091A4
:1004D000670180916801909169010E942E09811144
:1004E00001C0C0E081E090910601901301C080E05E
:1004F000C82B79F4A501940160916A0170916B0198
:1005000080916C0190916D010E942E09882309F45D
:1005100091C08091620190916301A0916401B091BA
:10052000650140915A0150915B0160915C017091AD
:100530005D01841B950BA60BB70B409100015091F8
:100540000101662757FD6095762F481759076A07FE
:100550007B070CF06FC08AE391E00E94F4048AE309
:1005600091E00E9415046FE071E08AE391E00E943F
:10057000200722E030E0B501A4018AE391E00E9467
:10058000B70865E171E08AE391E00E94200740E04E
:100590006DE08AE391E00E941C0467E171E08AE368
:1005A00091E00E942007602F8AE391E00E942207D9
:1005B00069E171E08AE391E00E94200741E060E098
:1005C0008AE391E00E941C046BE171E08AE391E010
:1005D0000E94200722E030E0B701A6018AE391E003
:1005E0000E94B70865E171E08AE391E00E9420076C
:1005F0008091620190916301A0916401B0916501C5
:1006000080935A0190935B01A0935C01B0935D01CC
:1006100080926A0190926B01A0926C01B0926D0180
:10062000C0926601D0926701E0926801F092690180
:1006300000930601CF910F91FF90EF90DF90CF9044
:10064000BF90AF909F908F9008950F930E94530595
:1006500060936201709363018093640190936501DC
:1006600080910701909108018230910541F083301B
:10067000910579F0019761F50E94980115C060E03D
:1006800070E089E00E94C20560E070E08EE090E0DA
:1006900009C060E070E089E00E94C20561E070E09E
:1006A00085E090E00E940D0220910A0130910B013B
:1006B00040910C0150910D0160917601709177018C
:1006C0008091780190917901009109010E94560270
:1006D0000E9426010F910C94D600CF92EF920F93B7
:1006E00084E0C82E95E0E92E06E027E04BE06CE0C0
:1006F0008AE391E00E94D4040F91EF90CF90089587
:10070000CF93DF93EC0160E08E810E94830681E04D
:1007100090E00E945F0561E08E810E94830681E087
:1007200090E00E945F0560E08E810E94830684E66F
:1007300090E0DF91CF910C945F05EF92FF920F93C1
:100740001F93CF93DF938C01C0E0D0E0E62EF12C15
:10075000B7010C2E02C0759567950A94E2F7617097
:10076000F801EC0FFD1F87810E9483062196C4309B
:10077000D10571F7C801DF91CF911F910F91FF90C3
:10078000EF900C948003EF92FF920F931F93CF93FF
:10079000DF938C01C0E0D0E0E62EF12CB7010C2EE7
:1007A00002C0759567950A94E2F76170F801EC0F45
:1007B000FD1F87810E9483062196C830D10571F7FD
:1007C000C801DF91CF911F910F91FF90EF900C9492
:1007D00080031F93CF93DF93EC01162F642F8C813E
:1007E0000E9483068D818F3F19F060E00E9483068E
:1007F0008F85612F84FF06C0CE01DF91CF911F91BD
:100800000C94C30370E084E0759567958A95E1F7D1
:10081000CE010E949D03612FCE01DF91CF911F91E8
:100820000C949D0340E00C94E90361E00E941204E3
:1008300080ED97E00C945F05443008F043E0FC0144
:100840002389421710F04FEF420FFC01E40FF11D16
:100850002489260F2068622F0C941204FC01608901
:10086000262F2460208B6C600C9412040F931F932E
:10087000CF93DF93EC01423018F08F8588608F872B
:100880004B8B1C8A80E48D8B6E8B70E0605C7F4F9D
:100890006F8B222329F0413019F48F8584608F8774
:1008A00061E08C810E944A068D818F3F19F061E0E2
:1008B0000E944A0661E08E810E944A0600E010E034
:1008C0008F8584FF03C088E090E002C084E090E060
:1008D0000817190754F4FE01E00FF11F61E087814A
:1008E0000E944A060F5F1F4FEBCF80E593EC0E94FA
:1008F0005F0560E08C810E94830660E08E810E942B
:1009000083068D818F3F19F060E00E9483066F851A
:1009100064FD1DC063E0CE010E949D0384E991E166
:100920000E945F0563E0CE010E949D0384E991E18E
:100930000E945F0563E0CE010E949D0386E990E07E
:100940000E945F0562E0CE010E949D0316C06062B6
:10095000CE010E94120484E991E10E945F056F8537
:100960006062CE010E94120486E990E00E945F0559
:100970006F856062CE010E9412046F856062CE01B5
:100980000E94120484E0888BCE010E942E04CE01C6
:100990000E94150482E0898B66E0CE01DF91CF9141
:1009A0001F910F910C941204CF92EF920F93FC01C0
:1009B0001382128285E291E09183808364838FEFBA
:1009C0008583468327830087E186C2861386148643
:1009D00015861686178620E041E060E1CF010F9171
:1009E000EF90CF900C943604FC0160896D7F608B92
:1009F00068600C941204FC016089262F2260208B11
:100A00006A600C94120441E00E94E90381E090E0E6
:100A100008951F920F920FB60F9211242F933F93B8
:100A20008F939F93AF93BF9380917B0190917C01B3
:100A3000A0917D01B0917E0130917A0123E0230FD6
:100A40002D3720F40196A11DB11D05C026E8230F06
:100A50000296A11DB11D20937A0180937B01909392
:100A60007C01A0937D01B0937E0180917F019091E4
:100A70008001A0918101B09182010196A11DB11D5B
:100A800080937F0190938001A0938101B0938201B4
:100A9000BF91AF919F918F913F912F910F900FBE7A
:100AA0000F901F9018952FB7F89460917B0170916B
:100AB0007C0180917D0190917E012FBF089582304D
:100AC000910538F0880F991F880F991F0597019796
:100AD000F1F70895789484B5826084BD84B581600F
:100AE00084BD85B5826085BD85B5816085BDEEE636
:100AF000F0E0808181608083E1E8F0E01082808115
:100B000082608083808181608083E0E8F0E0808182
:100B100081608083E1EBF0E0808184608083E0EBA2
:100B2000F0E0808181608083EAE7F0E0808184608A
:100B300080838081826080838081816080838081E6
:100B4000806880831092C10008958E3008F08E5026
:100B5000877020910E0190E4299F90011124822B2F
:100B600080937C0080917A00806480937A008091E9
:100B70007A0086FDFCCF809178002091790090E08A
:100B8000922B08951F93CF93DF93182FEB0161E011
:100B90000E944A06209711F460E004C0CF3FD105BF
:100BA00039F461E0812FDF91CF911F910C9483067E
:100BB000E12FF0E0E859FF4FE491E330F9F048F419
:100BC000E130B9F0E230A1F584B5806284BDC8BDE2
:100BD00034C0E730E9F0E83019F1E43049F58091AC
:100BE0008000806280938000D0938B00C0938A0045
:100BF00024C084B5806884BDC7BD1FC080918000BB
:100C0000806880938000D0938900C093880015C0CD
:100C10008091B00080688093B000C093B3000DC095
:100C20008091B00080628093B000C093B40005C092
:100C3000C038D1050CF0B5CFAFCFDF91CF911F9168
:100C40000895833081F028F4813099F08230A1F04A
:100C500008958730A9F08830B9F08430D1F48091BC
:100C600080008F7D03C0809180008F77809380000B
:100C7000089584B58F7702C084B58F7D84BD0895B3
:100C80008091B0008F7703C08091B0008F7D8093FA
:100C9000B0000895CF93DF9390E0FC01E458FF4F3C
:100CA0002491FC01E057FF4F8491882349F190E0A3
:100CB000880F991FFC01E854FF4FA591B49182550C
:100CC0009F4FFC01C591D4919FB7611108C0F89462
:100CD0008C91209582238C93888182230AC0623074
:100CE00051F4F8948C91322F309583238C93888122
:100CF000822B888304C0F8948C91822B8C939FBFA5
:100D0000DF91CF9108950F931F93CF93DF931F929D
:100D1000CDB7DEB7282F30E0F901E859FF4F8491B5
:100D2000F901E458FF4F1491F901E057FF4F049186
:100D30000023C9F0882321F069830E94210669817C
:100D4000E02FF0E0EE0FFF1FE255FF4FA591B491A9
:100D50009FB7F8948C91611103C01095812301C055
:100D6000812B8C939FBF0F90DF91CF911F910F919B
:100D70000895CF93DF93282F30E0F901E859FF4F12
:100D80008491F901E458FF4FD491F901E057FF4FE6
:100D9000C491CC2391F081110E942106EC2FF0E048
:100DA000EE0FFF1FEC55FF4FA591B4912C912D2311
:100DB00081E090E021F480E002C080E090E0DF91EB
:100DC000CF910895CF92DF92EF92FF920F931F93EE
:100DD000CF93DF937C016A01EB0100E010E00C157A
:100DE0001D0571F06991D701ED91FC910190F081A1
:100DF000E02DC7010995892B19F00F5F1F4FEFCF29
:100E0000C801DF91CF911F910F91FF90EF90DF907C
:100E1000CF9008956115710581F0DB010D900020E0
:100E2000E9F7AD0141505109461B570BDC01ED912B
:100E3000FC910280F381E02D099480E090E0089518
:100E40000C940A07DC01ED91FC910190F081E02DFA
:100E500009948F929F92AF92BF92CF92DF92EF92BE
:100E6000FF920F931F93CF93DF93CDB7DEB7A19778
:100E70000FB6F894DEBF0FBECDBF7C01C42EE52FA8
:100E8000CB01D22E19A221E02D1510F02AE0D22E8E
:100E90008E010F5D1F4F8D2C912CA12CB12C6C2D30
:100EA0007E2FA50194010E94E80A8C2DD29E801904
:100EB0001124015011098A3014F4805D01C0895C4D
:100EC000F8018083211531054105510521F0C22E1D
:100ED000E32FCA01E4CFB801C7010E940A07A19617
:100EE0000FB6F894DEBF0FBECDBFDF91CF911F913B
:100EF0000F91FF90EF90DF90CF90BF90AF909F90B9
:100F00008F900895CF92DF92EF92FF920F931F93ED
:100F1000CF93DF93EC016A017B012115310579F450
:100F2000E881F9810190F081E02D642FDF91CF916C
:100F30001F910F91FF90EF90DF90CF9009942A308E
:100F40003105E9F477FF1AC06DE20E9422078C0197
:100F500044275527BA014C195D096E097F092AE01B
:100F6000CE010E942907800F911FDF91CF911F9121
:100F70000F91FF90EF90DF90CF9008952AE0B70196
:100F8000A601CE01DF91CF911F910F91FF90EF90BD
:100F9000DF90CF900C9429074F925F926F927F92CF
:100FA0008F929F92AF92BF92CF92DF92EF92FF9279
:100FB0000F931F93CF93DF93EC016A017B01B22E55
:100FC0009A01AB01C701B6010E94E40A882319F017
:100FD0006CE271E027C026013701E89477F82FEF23
:100FE0003FEF4FE75FE7C301B2010E94E40A8111BE
:100FF0000DC02FEF3FEF4FE75FE7C301B2010E9443
:101000002E0918161CF460E371E00CC02FEF3FEFBF
:101010004FE75FE4C701B6010E947D0A1816ACF4E1
:1010200064E371E0CE01DF91CF911F910F91FF90AA
:10103000EF90DF90CF90BF90AF909F908F907F9078
:101040006F905F904F900C940A072FEF3FEF4FE7A0
:101050005FECC701B6010E942E0987FDE1CF20E0B9
:1010600030E0A901C701B6010E942E0987FF0AC01E
:101070006DE2CE010E9422078C01F7FAF094F7F896
:10108000F09402C000E010E0A12C60E070E080E08D
:101090009FE3AB1441F020E030E040E251E40E94D5
:1010A0003209A394F6CF9B01AC01C701B6010E949F
:1010B000CA086B017C010E949F092B013C010E9420
:1010C000CB099B01AC01C701B6010E94C9086B01A5
:1010D0007C012AE0B301A201CE010E942907080F7A
:1010E000191FBB2039F068E371E0CE010E940A07A6
:1010F000080F191F7B2C772041F120E030E040E2FF
:1011000051E4C701B6010E94810A6B017C010E9473
:101110009A094B01AA2497FCA094BA2C2AE030E04B
:10112000B501A401CE010E948207080F191FC50155
:10113000B4010E94CD099B01AC01C701B6010E9418
:10114000C9086B017C017A94D6CFC801DF91CF9199
:101150001F910F91FF90EF90DF90CF90BF90AF90D5
:101160009F908F907F906F905F904F9008950C9418
:10117000CC0708950E946A050E94B9080E948C005D
:10118000C0E0D0E00E9425032097E1F30E94000018
:10119000F9CF5058BB27AA270ED075C166D130F0C1
:1011A0006BD120F031F49F3F11F41EF45BC10EF4BB
:1011B000E095E7FB51C1E92F77D180F3BA176207B9
:1011C00073078407950718F071F49EF58FC10EF42C
:1011D000E0950B2EBA2FA02D0B01B90190010C0147
:1011E000CA01A0011124FF27591B99F0593F50F45F
:1011F000503E68F11A16F040A22F232F342F4427B7
:10120000585FF3CF469537952795A795F0405395AE
:10121000C9F77EF41F16BA0B620B730B840BBAF07E
:101220009150A1F0FF0FBB1F661F771F881FC2F7E9
:101230000EC0BA0F621F731F841F48F487957795FD
:101240006795B795F7959E3F08F0B3CF9395880FB4
:1012500008F09927EE0F979587950895D9D008F44F
:1012600081E008950CD00FC107D140F0FED030F0DE
:1012700021F45F3F19F0F0C0511139C1F3C014D10E
:1012800098F39923C9F35523B1F3951B550BBB274D
:10129000AA2762177307840738F09F5F5F4F220FFA
:1012A000331F441FAA1FA9F333D00E2E3AF0E0E8F3
:1012B00030D091505040E695001CCAF729D0FE2F3F
:1012C00027D0660F771F881FBB1F261737074807D1
:1012D000AB07B0E809F0BB0B802DBF01FF27935887
:1012E0005F4F2AF09E3F510568F0B6C000C15F3FD6
:1012F000ECF3983EDCF3869577956795B795F7956F
:101300009F5FC9F7880F911D9695879597F9089566
:10131000E1E0660F771F881FBB1F62177307840702
:10132000BA0720F0621B730B840BBA0BEE1F88F711
:10133000E095089504D06894B111D9C00895BCD047
:1013400088F09F5790F0B92F9927B751A0F0D1F0AE
:10135000660F771F881F991F1AF0BA95C9F712C038
:10136000B13081F0C3D0B1E00895C0C0672F782FAD
:101370008827B85F39F0B93FCCF3869577956795A4
:10138000B395D9F73EF490958095709561957F4F10
:101390008F4F9F4F0895E89409C097FB3EF49095B6
:1013A0008095709561957F4F8F4F9F4F9923A9F03E
:1013B000F92F96E9BB279395F695879577956795CD
:1013C000B795F111F8CFFAF4BB0F11F460FF1BC011
:1013D0006F5F7F4F8F4F9F4F16C0882311F096E9A4
:1013E00011C0772321F09EE8872F762F05C0662352
:1013F00071F096E8862F70E060E02AF09A95660F0B
:10140000771F881FDAF7880F9695879597F90895C3
:10141000990F0008550FAA0BE0E8FEEF1616170605
:10142000E807F907C0F012161306E407F50798F06D
:10143000621B730B840B950B39F40A2661F0232B86
:10144000242B252B21F408950A2609F4A140A69502
:101450008FEF811D811D089597F99F6780E870E0E7
:1014600060E008959FEF80EC089500240A9416161A
:10147000170618060906089500240A941216130682
:10148000140605060895092E0394000C11F4882310
:1014900052F0BB0F40F4BF2B11F460FF04C06F5F2C
:1014A0007F4F8F4F9F4F089557FD9058440F551F02
:1014B00059F05F3F71F04795880F97FB991F61F0D6
:1014C0009F3F79F087950895121613061406551F4D
:1014D000F2CF4695F1DF08C0161617061806991FB9
:1014E000F1CF86957105610508940895E894BB27AE
:1014F00066277727CB0197F908958ADF08F48FEFE5
:1015000008950BD0C0CFB1DF28F0B6DF18F09523D7
:1015100009F0A2CFA7CF1124EACFC6DFA0F3959F91
:10152000D1F3950F50E0551F629FF001729FBB27CA
:10153000F00DB11D639FAA27F00DB11DAA1F649F76
:101540006627B00DA11D661F829F2227B00DA11D29
:10155000621F739FB00DA11D621F839FA00D611DAF
:10156000221F749F3327A00D611D231F849F600DD0
:10157000211D822F762F6A2F11249F5750408AF009
:10158000E1F088234AF0EE0FFF1FBB1F661F771F95
:10159000881F91505040A9F79E3F510570F05CCFD5
:1015A000A6CF5F3FECF3983EDCF386957795679581
:1015B000B795F795E7959F5FC1F7FE2B880F911DB3
:1015C0009695879597F9089523DF880B990B0895D1
:1015D000A1E21A2EAA1BBB1BFD010DC0AA1FBB1F37
:1015E000EE1FFF1FA217B307E407F50720F0A21BA9
:1015F000B30BE40BF50B661F771F881F991F1A9416
:1016000069F760957095809590959B01AC01BD013F
:10161000CF010895EE0FFF1F0590F491E02D09947E
:04162000F894FFCF6C
:10162400FA002C010000410100410000C841014CB6
:101634004D33353A00430028002900536574433A7A
:1016440000000000000305E2060D0A006E616E0052
:0A165400696E66006F7666002E00D6
:00000001FF
